{
  "_format": "hh-sol-artifact-1",
  "contractName": "SubscriptionManager",
  "sourceName": "contracts/SubscriptionManager.sol",
  "abi": [
    {
      "inputs": [],
      "stateMutability": "nonpayable",
      "type": "constructor"
    },
    {
      "inputs": [],
      "name": "AccessControlBadConfirmation",
      "type": "error"
    },
    {
      "inputs": [
        {
          "internalType": "address",
          "name": "account",
          "type": "address"
        },
        {
          "internalType": "bytes32",
          "name": "neededRole",
          "type": "bytes32"
        }
      ],
      "name": "AccessControlUnauthorizedAccount",
      "type": "error"
    },
    {
      "inputs": [
        {
          "internalType": "address",
          "name": "owner",
          "type": "address"
        }
      ],
      "name": "OwnableInvalidOwner",
      "type": "error"
    },
    {
      "inputs": [
        {
          "internalType": "address",
          "name": "account",
          "type": "address"
        }
      ],
      "name": "OwnableUnauthorizedAccount",
      "type": "error"
    },
    {
      "anonymous": false,
      "inputs": [
        {
          "indexed": true,
          "internalType": "address",
          "name": "previousOwner",
          "type": "address"
        },
        {
          "indexed": true,
          "internalType": "address",
          "name": "newOwner",
          "type": "address"
        }
      ],
      "name": "OwnershipTransferred",
      "type": "event"
    },
    {
      "anonymous": false,
      "inputs": [
        {
          "indexed": true,
          "internalType": "address",
          "name": "subscriber",
          "type": "address"
        },
        {
          "indexed": true,
          "internalType": "uint64",
          "name": "serviceId",
          "type": "uint64"
        },
        {
          "indexed": false,
          "internalType": "uint128",
          "name": "amount",
          "type": "uint128"
        }
      ],
      "name": "PaymentExecuted",
      "type": "event"
    },
    {
      "anonymous": false,
      "inputs": [
        {
          "indexed": true,
          "internalType": "bytes32",
          "name": "role",
          "type": "bytes32"
        },
        {
          "indexed": true,
          "internalType": "bytes32",
          "name": "previousAdminRole",
          "type": "bytes32"
        },
        {
          "indexed": true,
          "internalType": "bytes32",
          "name": "newAdminRole",
          "type": "bytes32"
        }
      ],
      "name": "RoleAdminChanged",
      "type": "event"
    },
    {
      "anonymous": false,
      "inputs": [
        {
          "indexed": true,
          "internalType": "bytes32",
          "name": "role",
          "type": "bytes32"
        },
        {
          "indexed": true,
          "internalType": "address",
          "name": "account",
          "type": "address"
        },
        {
          "indexed": true,
          "internalType": "address",
          "name": "sender",
          "type": "address"
        }
      ],
      "name": "RoleGranted",
      "type": "event"
    },
    {
      "anonymous": false,
      "inputs": [
        {
          "indexed": true,
          "internalType": "bytes32",
          "name": "role",
          "type": "bytes32"
        },
        {
          "indexed": true,
          "internalType": "address",
          "name": "account",
          "type": "address"
        },
        {
          "indexed": true,
          "internalType": "address",
          "name": "sender",
          "type": "address"
        }
      ],
      "name": "RoleRevoked",
      "type": "event"
    },
    {
      "anonymous": false,
      "inputs": [
        {
          "indexed": true,
          "internalType": "uint64",
          "name": "serviceId",
          "type": "uint64"
        },
        {
          "indexed": true,
          "internalType": "address",
          "name": "provider",
          "type": "address"
        },
        {
          "indexed": false,
          "internalType": "uint128",
          "name": "price",
          "type": "uint128"
        }
      ],
      "name": "ServiceCreated",
      "type": "event"
    },
    {
      "anonymous": false,
      "inputs": [
        {
          "indexed": true,
          "internalType": "address",
          "name": "subscriber",
          "type": "address"
        },
        {
          "indexed": true,
          "internalType": "uint64",
          "name": "serviceId",
          "type": "uint64"
        }
      ],
      "name": "SubscriptionCancelled",
      "type": "event"
    },
    {
      "anonymous": false,
      "inputs": [
        {
          "indexed": true,
          "internalType": "address",
          "name": "subscriber",
          "type": "address"
        },
        {
          "indexed": true,
          "internalType": "uint64",
          "name": "serviceId",
          "type": "uint64"
        },
        {
          "indexed": false,
          "internalType": "uint128",
          "name": "amount",
          "type": "uint128"
        }
      ],
      "name": "SubscriptionCreated",
      "type": "event"
    },
    {
      "inputs": [],
      "name": "DEFAULT_ADMIN_ROLE",
      "outputs": [
        {
          "internalType": "bytes32",
          "name": "",
          "type": "bytes32"
        }
      ],
      "stateMutability": "view",
      "type": "function"
    },
    {
      "inputs": [],
      "name": "SERVICE_PROVIDER",
      "outputs": [
        {
          "internalType": "bytes32",
          "name": "",
          "type": "bytes32"
        }
      ],
      "stateMutability": "view",
      "type": "function"
    },
    {
      "inputs": [
        {
          "internalType": "address",
          "name": "user",
          "type": "address"
        }
      ],
      "name": "addServiceProvider",
      "outputs": [],
      "stateMutability": "nonpayable",
      "type": "function"
    },
    {
      "inputs": [
        {
          "internalType": "uint8",
          "name": "_serviceId",
          "type": "uint8"
        },
        {
          "internalType": "enum SubscriptionManager.Duration",
          "name": "_duration",
          "type": "uint8"
        }
      ],
      "name": "calculateSubscriptionAmount",
      "outputs": [
        {
          "internalType": "uint128",
          "name": "",
          "type": "uint128"
        }
      ],
      "stateMutability": "view",
      "type": "function"
    },
    {
      "inputs": [
        {
          "internalType": "uint8",
          "name": "_serviceId",
          "type": "uint8"
        }
      ],
      "name": "cancelSubscription",
      "outputs": [],
      "stateMutability": "nonpayable",
      "type": "function"
    },
    {
      "inputs": [
        {
          "internalType": "uint128",
          "name": "_price",
          "type": "uint128"
        }
      ],
      "name": "createService",
      "outputs": [],
      "stateMutability": "nonpayable",
      "type": "function"
    },
    {
      "inputs": [
        {
          "internalType": "uint8",
          "name": "_serviceId",
          "type": "uint8"
        },
        {
          "internalType": "enum SubscriptionManager.Duration",
          "name": "_duration",
          "type": "uint8"
        }
      ],
      "name": "createSubscription",
      "outputs": [],
      "stateMutability": "payable",
      "type": "function"
    },
    {
      "inputs": [
        {
          "internalType": "uint8",
          "name": "_serviceId",
          "type": "uint8"
        }
      ],
      "name": "executePayment",
      "outputs": [],
      "stateMutability": "payable",
      "type": "function"
    },
    {
      "inputs": [
        {
          "internalType": "bytes32",
          "name": "role",
          "type": "bytes32"
        }
      ],
      "name": "getRoleAdmin",
      "outputs": [
        {
          "internalType": "bytes32",
          "name": "",
          "type": "bytes32"
        }
      ],
      "stateMutability": "view",
      "type": "function"
    },
    {
      "inputs": [
        {
          "internalType": "bytes32",
          "name": "role",
          "type": "bytes32"
        },
        {
          "internalType": "address",
          "name": "account",
          "type": "address"
        }
      ],
      "name": "grantRole",
      "outputs": [],
      "stateMutability": "nonpayable",
      "type": "function"
    },
    {
      "inputs": [
        {
          "internalType": "bytes32",
          "name": "role",
          "type": "bytes32"
        },
        {
          "internalType": "address",
          "name": "account",
          "type": "address"
        }
      ],
      "name": "hasRole",
      "outputs": [
        {
          "internalType": "bool",
          "name": "",
          "type": "bool"
        }
      ],
      "stateMutability": "view",
      "type": "function"
    },
    {
      "inputs": [],
      "name": "owner",
      "outputs": [
        {
          "internalType": "address",
          "name": "",
          "type": "address"
        }
      ],
      "stateMutability": "view",
      "type": "function"
    },
    {
      "inputs": [],
      "name": "renounceOwnership",
      "outputs": [],
      "stateMutability": "nonpayable",
      "type": "function"
    },
    {
      "inputs": [
        {
          "internalType": "bytes32",
          "name": "role",
          "type": "bytes32"
        },
        {
          "internalType": "address",
          "name": "callerConfirmation",
          "type": "address"
        }
      ],
      "name": "renounceRole",
      "outputs": [],
      "stateMutability": "nonpayable",
      "type": "function"
    },
    {
      "inputs": [
        {
          "internalType": "bytes32",
          "name": "role",
          "type": "bytes32"
        },
        {
          "internalType": "address",
          "name": "account",
          "type": "address"
        }
      ],
      "name": "revokeRole",
      "outputs": [],
      "stateMutability": "nonpayable",
      "type": "function"
    },
    {
      "inputs": [],
      "name": "serviceId",
      "outputs": [
        {
          "internalType": "uint8",
          "name": "",
          "type": "uint8"
        }
      ],
      "stateMutability": "view",
      "type": "function"
    },
    {
      "inputs": [
        {
          "internalType": "uint8",
          "name": "",
          "type": "uint8"
        }
      ],
      "name": "services",
      "outputs": [
        {
          "internalType": "address",
          "name": "serviceProvider",
          "type": "address"
        },
        {
          "internalType": "uint128",
          "name": "price",
          "type": "uint128"
        },
        {
          "internalType": "bool",
          "name": "active",
          "type": "bool"
        }
      ],
      "stateMutability": "view",
      "type": "function"
    },
    {
      "inputs": [
        {
          "internalType": "address",
          "name": "",
          "type": "address"
        },
        {
          "internalType": "uint8",
          "name": "",
          "type": "uint8"
        }
      ],
      "name": "subscriptions",
      "outputs": [
        {
          "internalType": "address",
          "name": "subscriber",
          "type": "address"
        },
        {
          "internalType": "uint128",
          "name": "price",
          "type": "uint128"
        },
        {
          "internalType": "uint256",
          "name": "nextPaymentDate",
          "type": "uint256"
        },
        {
          "internalType": "bool",
          "name": "active",
          "type": "bool"
        },
        {
          "internalType": "enum SubscriptionManager.Duration",
          "name": "duration",
          "type": "uint8"
        }
      ],
      "stateMutability": "view",
      "type": "function"
    },
    {
      "inputs": [
        {
          "internalType": "bytes4",
          "name": "interfaceId",
          "type": "bytes4"
        }
      ],
      "name": "supportsInterface",
      "outputs": [
        {
          "internalType": "bool",
          "name": "",
          "type": "bool"
        }
      ],
      "stateMutability": "view",
      "type": "function"
    },
    {
      "inputs": [
        {
          "internalType": "address",
          "name": "newOwner",
          "type": "address"
        }
      ],
      "name": "transferOwnership",
      "outputs": [],
      "stateMutability": "nonpayable",
      "type": "function"
    }
  ],
  "bytecode": "0x60806040523480156200001157600080fd5b5033600073ffffffffffffffffffffffffffffffffffffffff168173ffffffffffffffffffffffffffffffffffffffff1603620000885760006040517f1e4fbdf70000000000000000000000000000000000000000000000000000000081526004016200007f919062000335565b60405180910390fd5b6200009981620000b660201b60201c565b50620000af6000801b336200017a60201b60201c565b5062000352565b60008060009054906101000a900473ffffffffffffffffffffffffffffffffffffffff169050816000806101000a81548173ffffffffffffffffffffffffffffffffffffffff021916908373ffffffffffffffffffffffffffffffffffffffff1602179055508173ffffffffffffffffffffffffffffffffffffffff168173ffffffffffffffffffffffffffffffffffffffff167f8be0079c531659141344cd1fd0a4f28419497f9722a3daafe3b4186f6b6457e060405160405180910390a35050565b60006200018e83836200027d60201b60201c565b6200027257600180600085815260200190815260200160002060000160008473ffffffffffffffffffffffffffffffffffffffff1673ffffffffffffffffffffffffffffffffffffffff16815260200190815260200160002060006101000a81548160ff0219169083151502179055506200020e620002e860201b60201c565b73ffffffffffffffffffffffffffffffffffffffff168273ffffffffffffffffffffffffffffffffffffffff16847f2f8788117e7eff1d82e926ec794901d17c78024a50270940304540a733656f0d60405160405180910390a46001905062000277565b600090505b92915050565b60006001600084815260200190815260200160002060000160008373ffffffffffffffffffffffffffffffffffffffff1673ffffffffffffffffffffffffffffffffffffffff16815260200190815260200160002060009054906101000a900460ff16905092915050565b600033905090565b600073ffffffffffffffffffffffffffffffffffffffff82169050919050565b60006200031d82620002f0565b9050919050565b6200032f8162000310565b82525050565b60006020820190506200034c600083018462000324565b92915050565b61233f80620003626000396000f3fe60806040526004361061011f5760003560e01c80638da5cb5b116100a0578063d547741f11610064578063d547741f146103b5578063da20ec6a146103de578063e7a9114414610409578063f2fde38b1461044a578063fa05419a146104735761011f565b80638da5cb5b146102d05780638f7fce2b146102fb57806391d1485414610324578063a217fddf14610361578063c508d8bf1461038c5761011f565b80632b02650e116100e75780632b02650e1461022f5780632f2ff15d1461024b57806336568abe1461027457806340b260b91461029d578063715018a6146102b95761011f565b806301ffc9a714610124578063075d7a6f14610161578063248a9ca31461018a5780632625832c146101c75780632a26c58b146101f2575b600080fd5b34801561013057600080fd5b5061014b60048036038101906101469190611907565b6104b2565b604051610158919061194f565b60405180910390f35b34801561016d57600080fd5b50610188600480360381019061018391906119c8565b61052c565b005b34801561019657600080fd5b506101b160048036038101906101ac9190611a2b565b610562565b6040516101be9190611a67565b60405180910390f35b3480156101d357600080fd5b506101dc610582565b6040516101e99190611a67565b60405180910390f35b3480156101fe57600080fd5b5061021960048036038101906102149190611ae0565b6105a6565b6040516102269190611b4b565b60405180910390f35b61024960048036038101906102449190611b66565b6107a4565b005b34801561025757600080fd5b50610272600480360381019061026d9190611b93565b610a2c565b005b34801561028057600080fd5b5061029b60048036038101906102969190611b93565b610a4e565b005b6102b760048036038101906102b29190611ae0565b610ac9565b005b3480156102c557600080fd5b506102ce610e6f565b005b3480156102dc57600080fd5b506102e5610e83565b6040516102f29190611be2565b60405180910390f35b34801561030757600080fd5b50610322600480360381019061031d9190611b66565b610eac565b005b34801561033057600080fd5b5061034b60048036038101906103469190611b93565b610fbf565b604051610358919061194f565b60405180910390f35b34801561036d57600080fd5b5061037661102a565b6040516103839190611a67565b60405180910390f35b34801561039857600080fd5b506103b360048036038101906103ae9190611c29565b611031565b005b3480156103c157600080fd5b506103dc60048036038101906103d79190611b93565b6112dd565b005b3480156103ea57600080fd5b506103f36112ff565b6040516104009190611c65565b60405180910390f35b34801561041557600080fd5b50610430600480360381019061042b9190611c80565b611312565b604051610441959493929190611d50565b60405180910390f35b34801561045657600080fd5b50610471600480360381019061046c91906119c8565b6113ab565b005b34801561047f57600080fd5b5061049a60048036038101906104959190611b66565b611431565b6040516104a993929190611da3565b60405180910390f35b60007f7965db0b000000000000000000000000000000000000000000000000000000007bffffffffffffffffffffffffffffffffffffffffffffffffffffffff1916827bffffffffffffffffffffffffffffffffffffffffffffffffffffffff191614806105255750610524826114a4565b5b9050919050565b61053461150e565b61055e7fb1295e226936bc270b4829acc516f69e4a4f6a5589c7ea15c4ab1eeff4153cc982611595565b5050565b600060016000838152602001908152602001600020600101549050919050565b7fb1295e226936bc270b4829acc516f69e4a4f6a5589c7ea15c4ab1eeff4153cc981565b600080600360008560ff1660ff1681526020019081526020016000206040518060600160405290816000820160009054906101000a900473ffffffffffffffffffffffffffffffffffffffff1673ffffffffffffffffffffffffffffffffffffffff1673ffffffffffffffffffffffffffffffffffffffff1681526020016001820160009054906101000a90046fffffffffffffffffffffffffffffffff166fffffffffffffffffffffffffffffffff166fffffffffffffffffffffffffffffffff1681526020016001820160109054906101000a900460ff161515151581525050905080604001516106ce576040517f08c379a00000000000000000000000000000000000000000000000000000000081526004016106c590611e37565b60405180910390fd5b600060018111156106e2576106e1611cd9565b5b8360018111156106f5576106f4611cd9565b5b0361070757806020015191505061079e565b60018081111561071a57610719611cd9565b5b83600181111561072d5761072c611cd9565b5b036107635760646046600c83602001516107479190611e86565b6107519190611e86565b61075b9190611ef2565b91505061079e565b6040517f08c379a000000000000000000000000000000000000000000000000000000000815260040161079590611f6f565b60405180910390fd5b92915050565b6000600460003373ffffffffffffffffffffffffffffffffffffffff1673ffffffffffffffffffffffffffffffffffffffff16815260200190815260200160002060008360ff1660ff16815260200190815260200160002090508060030160009054906101000a900460ff1661084f576040517f08c379a000000000000000000000000000000000000000000000000000000000815260040161084690611fdb565b60405180910390fd5b8060020154421015610896576040517f08c379a000000000000000000000000000000000000000000000000000000000815260040161088d90612047565b60405180910390fd5b6000600360008460ff1660ff16815260200190815260200160002090508060000160009054906101000a900473ffffffffffffffffffffffffffffffffffffffff1673ffffffffffffffffffffffffffffffffffffffff166108fc8360010160009054906101000a90046fffffffffffffffffffffffffffffffff166fffffffffffffffffffffffffffffffff169081150290604051600060405180830381858888f1935050505015801561094f573d6000803e3d6000fd5b506000600181111561096457610963611cd9565b5b8260030160019054906101000a900460ff16600181111561098857610987611cd9565b5b14610997576301e1338061099c565b62278d005b63ffffffff16426109ad9190612067565b82600201819055508260ff163373ffffffffffffffffffffffffffffffffffffffff167f6ba6e115f7af076eb59b0a0858429347a881fe022f1159923aed79ffa1d696918460010160009054906101000a90046fffffffffffffffffffffffffffffffff16604051610a1f9190611b4b565b60405180910390a3505050565b610a3582610562565b610a3e81611686565b610a488383611595565b50505050565b610a5661169a565b73ffffffffffffffffffffffffffffffffffffffff168173ffffffffffffffffffffffffffffffffffffffff1614610aba576040517f6697b23200000000000000000000000000000000000000000000000000000000815260040160405180910390fd5b610ac482826116a2565b505050565b600360008360ff1660ff16815260200190815260200160002060010160109054906101000a900460ff16610b32576040517f08c379a0000000000000000000000000000000000000000000000000000000008152600401610b29906120e7565b60405180910390fd5b6000600360008460ff1660ff16815260200190815260200160002090506000600460003373ffffffffffffffffffffffffffffffffffffffff1673ffffffffffffffffffffffffffffffffffffffff16815260200190815260200160002060008560ff1660ff16815260200190815260200160002090508060030160009054906101000a900460ff1615610bfb576040517f08c379a0000000000000000000000000000000000000000000000000000000008152600401610bf290612153565b60405180910390fd5b6000610c0785856105a6565b9050806fffffffffffffffffffffffffffffffff16341015610c5e576040517f08c379a0000000000000000000000000000000000000000000000000000000008152600401610c55906121bf565b60405180910390fd5b8260000160009054906101000a900473ffffffffffffffffffffffffffffffffffffffff1673ffffffffffffffffffffffffffffffffffffffff166108fc826fffffffffffffffffffffffffffffffff169081150290604051600060405180830381858888f19350505050158015610cda573d6000803e3d6000fd5b50338260000160006101000a81548173ffffffffffffffffffffffffffffffffffffffff021916908373ffffffffffffffffffffffffffffffffffffffff160217905550808260010160006101000a8154816fffffffffffffffffffffffffffffffff02191690836fffffffffffffffffffffffffffffffff16021790555060006001811115610d6d57610d6c611cd9565b5b846001811115610d8057610d7f611cd9565b5b14610d8f576301e13380610d94565b62278d005b63ffffffff1642610da59190612067565b826002018190555060018260030160006101000a81548160ff021916908315150217905550838260030160016101000a81548160ff02191690836001811115610df157610df0611cd9565b5b02179055508460ff163373ffffffffffffffffffffffffffffffffffffffff167fcb4f9383a92ae67e9695c8df9ebbe4c38887ce0cba85dd3eb36eee5b990630578560010160009054906101000a90046fffffffffffffffffffffffffffffffff16604051610e609190611b4b565b60405180910390a35050505050565b610e7761150e565b610e816000611795565b565b60008060009054906101000a900473ffffffffffffffffffffffffffffffffffffffff16905090565b6000600460003373ffffffffffffffffffffffffffffffffffffffff1673ffffffffffffffffffffffffffffffffffffffff16815260200190815260200160002060008360ff1660ff16815260200190815260200160002090508060030160009054906101000a900460ff16610f57576040517f08c379a0000000000000000000000000000000000000000000000000000000008152600401610f4e90611fdb565b60405180910390fd5b60008160030160006101000a81548160ff0219169083151502179055508160ff163373ffffffffffffffffffffffffffffffffffffffff167f31043f73ad232c0e1e1b6390d8a41d5fbf316b30e781c7dc76895ef519c2f58360405160405180910390a35050565b60006001600084815260200190815260200160002060000160008373ffffffffffffffffffffffffffffffffffffffff1673ffffffffffffffffffffffffffffffffffffffff16815260200190815260200160002060009054906101000a900460ff16905092915050565b6000801b81565b7fb1295e226936bc270b4829acc516f69e4a4f6a5589c7ea15c4ab1eeff4153cc961105b81611686565b6000826fffffffffffffffffffffffffffffffff16116110b0576040517f08c379a00000000000000000000000000000000000000000000000000000000081526004016110a79061222b565b60405180910390fd5b6002600081819054906101000a900460ff16809291906110cf9061224b565b91906101000a81548160ff021916908360ff1602179055505060036000600260009054906101000a900460ff1660ff1660ff16815260200190815260200160002060010160109054906101000a900460ff1615611161576040517f08c379a0000000000000000000000000000000000000000000000000000000008152600401611158906122c0565b60405180910390fd5b60405180606001604052803373ffffffffffffffffffffffffffffffffffffffff168152602001836fffffffffffffffffffffffffffffffff1681526020016001151581525060036000600260009054906101000a900460ff1660ff1660ff16815260200190815260200160002060008201518160000160006101000a81548173ffffffffffffffffffffffffffffffffffffffff021916908373ffffffffffffffffffffffffffffffffffffffff16021790555060208201518160010160006101000a8154816fffffffffffffffffffffffffffffffff02191690836fffffffffffffffffffffffffffffffff16021790555060408201518160010160106101000a81548160ff0219169083151502179055509050503373ffffffffffffffffffffffffffffffffffffffff16600260009054906101000a900460ff1660ff167ffb7358d60261e341d2ee51d1053e664aa13ea03ca39b0c948e3ed88c4905912c846040516112d19190611b4b565b60405180910390a35050565b6112e682610562565b6112ef81611686565b6112f983836116a2565b50505050565b600260009054906101000a900460ff1681565b6004602052816000526040600020602052806000526040600020600091509150508060000160009054906101000a900473ffffffffffffffffffffffffffffffffffffffff16908060010160009054906101000a90046fffffffffffffffffffffffffffffffff16908060020154908060030160009054906101000a900460ff16908060030160019054906101000a900460ff16905085565b6113b361150e565b600073ffffffffffffffffffffffffffffffffffffffff168173ffffffffffffffffffffffffffffffffffffffff16036114255760006040517f1e4fbdf700000000000000000000000000000000000000000000000000000000815260040161141c9190611be2565b60405180910390fd5b61142e81611795565b50565b60036020528060005260406000206000915090508060000160009054906101000a900473ffffffffffffffffffffffffffffffffffffffff16908060010160009054906101000a90046fffffffffffffffffffffffffffffffff16908060010160109054906101000a900460ff16905083565b60007f01ffc9a7000000000000000000000000000000000000000000000000000000007bffffffffffffffffffffffffffffffffffffffffffffffffffffffff1916827bffffffffffffffffffffffffffffffffffffffffffffffffffffffff1916149050919050565b61151661169a565b73ffffffffffffffffffffffffffffffffffffffff16611534610e83565b73ffffffffffffffffffffffffffffffffffffffff16146115935761155761169a565b6040517f118cdaa700000000000000000000000000000000000000000000000000000000815260040161158a9190611be2565b60405180910390fd5b565b60006115a18383610fbf565b61167b57600180600085815260200190815260200160002060000160008473ffffffffffffffffffffffffffffffffffffffff1673ffffffffffffffffffffffffffffffffffffffff16815260200190815260200160002060006101000a81548160ff02191690831515021790555061161861169a565b73ffffffffffffffffffffffffffffffffffffffff168273ffffffffffffffffffffffffffffffffffffffff16847f2f8788117e7eff1d82e926ec794901d17c78024a50270940304540a733656f0d60405160405180910390a460019050611680565b600090505b92915050565b6116978161169261169a565b611859565b50565b600033905090565b60006116ae8383610fbf565b1561178a5760006001600085815260200190815260200160002060000160008473ffffffffffffffffffffffffffffffffffffffff1673ffffffffffffffffffffffffffffffffffffffff16815260200190815260200160002060006101000a81548160ff02191690831515021790555061172761169a565b73ffffffffffffffffffffffffffffffffffffffff168273ffffffffffffffffffffffffffffffffffffffff16847ff6391f5c32d9c69d2a47ea670b442974b53935d1edc7fd64eb21e047a839171b60405160405180910390a46001905061178f565b600090505b92915050565b60008060009054906101000a900473ffffffffffffffffffffffffffffffffffffffff169050816000806101000a81548173ffffffffffffffffffffffffffffffffffffffff021916908373ffffffffffffffffffffffffffffffffffffffff1602179055508173ffffffffffffffffffffffffffffffffffffffff168173ffffffffffffffffffffffffffffffffffffffff167f8be0079c531659141344cd1fd0a4f28419497f9722a3daafe3b4186f6b6457e060405160405180910390a35050565b6118638282610fbf565b6118a65780826040517fe2517d3f00000000000000000000000000000000000000000000000000000000815260040161189d9291906122e0565b60405180910390fd5b5050565b600080fd5b60007fffffffff0000000000000000000000000000000000000000000000000000000082169050919050565b6118e4816118af565b81146118ef57600080fd5b50565b600081359050611901816118db565b92915050565b60006020828403121561191d5761191c6118aa565b5b600061192b848285016118f2565b91505092915050565b60008115159050919050565b61194981611934565b82525050565b60006020820190506119646000830184611940565b92915050565b600073ffffffffffffffffffffffffffffffffffffffff82169050919050565b60006119958261196a565b9050919050565b6119a58161198a565b81146119b057600080fd5b50565b6000813590506119c28161199c565b92915050565b6000602082840312156119de576119dd6118aa565b5b60006119ec848285016119b3565b91505092915050565b6000819050919050565b611a08816119f5565b8114611a1357600080fd5b50565b600081359050611a25816119ff565b92915050565b600060208284031215611a4157611a406118aa565b5b6000611a4f84828501611a16565b91505092915050565b611a61816119f5565b82525050565b6000602082019050611a7c6000830184611a58565b92915050565b600060ff82169050919050565b611a9881611a82565b8114611aa357600080fd5b50565b600081359050611ab581611a8f565b92915050565b60028110611ac857600080fd5b50565b600081359050611ada81611abb565b92915050565b60008060408385031215611af757611af66118aa565b5b6000611b0585828601611aa6565b9250506020611b1685828601611acb565b9150509250929050565b60006fffffffffffffffffffffffffffffffff82169050919050565b611b4581611b20565b82525050565b6000602082019050611b606000830184611b3c565b92915050565b600060208284031215611b7c57611b7b6118aa565b5b6000611b8a84828501611aa6565b91505092915050565b60008060408385031215611baa57611ba96118aa565b5b6000611bb885828601611a16565b9250506020611bc9858286016119b3565b9150509250929050565b611bdc8161198a565b82525050565b6000602082019050611bf76000830184611bd3565b92915050565b611c0681611b20565b8114611c1157600080fd5b50565b600081359050611c2381611bfd565b92915050565b600060208284031215611c3f57611c3e6118aa565b5b6000611c4d84828501611c14565b91505092915050565b611c5f81611a82565b82525050565b6000602082019050611c7a6000830184611c56565b92915050565b60008060408385031215611c9757611c966118aa565b5b6000611ca5858286016119b3565b9250506020611cb685828601611aa6565b9150509250929050565b6000819050919050565b611cd381611cc0565b82525050565b7f4e487b7100000000000000000000000000000000000000000000000000000000600052602160045260246000fd5b60028110611d1957611d18611cd9565b5b50565b6000819050611d2a82611d08565b919050565b6000611d3a82611d1c565b9050919050565b611d4a81611d2f565b82525050565b600060a082019050611d656000830188611bd3565b611d726020830187611b3c565b611d7f6040830186611cca565b611d8c6060830185611940565b611d996080830184611d41565b9695505050505050565b6000606082019050611db86000830186611bd3565b611dc56020830185611b3c565b611dd26040830184611940565b949350505050565b600082825260208201905092915050565b7f53657276696365206973206e6f74206163746976650000000000000000000000600082015250565b6000611e21601583611dda565b9150611e2c82611deb565b602082019050919050565b60006020820190508181036000830152611e5081611e14565b9050919050565b7f4e487b7100000000000000000000000000000000000000000000000000000000600052601160045260246000fd5b6000611e9182611b20565b9150611e9c83611b20565b9250828202611eaa81611b20565b9150808214611ebc57611ebb611e57565b5b5092915050565b7f4e487b7100000000000000000000000000000000000000000000000000000000600052601260045260246000fd5b6000611efd82611b20565b9150611f0883611b20565b925082611f1857611f17611ec3565b5b828204905092915050565b7f496e76616c6964206475726174696f6e20747970650000000000000000000000600082015250565b6000611f59601583611dda565b9150611f6482611f23565b602082019050919050565b60006020820190508181036000830152611f8881611f4c565b9050919050565b7f537562736372697074696f6e20697320696e6163746976650000000000000000600082015250565b6000611fc5601883611dda565b9150611fd082611f8f565b602082019050919050565b60006020820190508181036000830152611ff481611fb8565b9050919050565b7f5061796d656e74206e6f74206475652079657400000000000000000000000000600082015250565b6000612031601383611dda565b915061203c82611ffb565b602082019050919050565b6000602082019050818103600083015261206081612024565b9050919050565b600061207282611cc0565b915061207d83611cc0565b925082820190508082111561209557612094611e57565b5b92915050565b7f5365727669636520697320696e61637469766500000000000000000000000000600082015250565b60006120d1601383611dda565b91506120dc8261209b565b602082019050919050565b60006020820190508181036000830152612100816120c4565b9050919050565b7f537562736372697074696f6e20616c7265616479206578697374730000000000600082015250565b600061213d601b83611dda565b915061214882612107565b602082019050919050565b6000602082019050818103600083015261216c81612130565b9050919050565b7f496e73756666696369656e742045746865722073656e74000000000000000000600082015250565b60006121a9601783611dda565b91506121b482612173565b602082019050919050565b600060208201905081810360008301526121d88161219c565b9050919050565b7f5072696365206d7573742062652067726561746572207468616e203000000000600082015250565b6000612215601c83611dda565b9150612220826121df565b602082019050919050565b6000602082019050818103600083015261224481612208565b9050919050565b600061225682611a82565b915060ff820361226957612268611e57565b5b600182019050919050565b7f5365727669636520616c72656164792065786973747300000000000000000000600082015250565b60006122aa601683611dda565b91506122b582612274565b602082019050919050565b600060208201905081810360008301526122d98161229d565b9050919050565b60006040820190506122f56000830185611bd3565b6123026020830184611a58565b939250505056fea26469706673582212204940e8636de4749030d9c21109d8ec3da74a8b5be738cf856d2b84feaa542c9664736f6c63430008180033",
  "linkReferences": {},
  "deployedLinkReferences": {}
}