{
  "_format": "hh-sol-artifact-1",
  "contractName": "SubscriptionManager",
  "sourceName": "contracts/SubscriptionManager.sol",
  "abi": [
    {
      "inputs": [
        {
          "internalType": "contract IERC20",
          "name": "_usdeToken",
          "type": "address"
        }
      ],
      "stateMutability": "nonpayable",
      "type": "constructor"
    },
    {
      "inputs": [],
      "name": "AccessControlBadConfirmation",
      "type": "error"
    },
    {
      "inputs": [
        {
          "internalType": "address",
          "name": "account",
          "type": "address"
        },
        {
          "internalType": "bytes32",
          "name": "neededRole",
          "type": "bytes32"
        }
      ],
      "name": "AccessControlUnauthorizedAccount",
      "type": "error"
    },
    {
      "inputs": [
        {
          "internalType": "address",
          "name": "owner",
          "type": "address"
        }
      ],
      "name": "OwnableInvalidOwner",
      "type": "error"
    },
    {
      "inputs": [
        {
          "internalType": "address",
          "name": "account",
          "type": "address"
        }
      ],
      "name": "OwnableUnauthorizedAccount",
      "type": "error"
    },
    {
      "anonymous": false,
      "inputs": [
        {
          "indexed": true,
          "internalType": "address",
          "name": "previousOwner",
          "type": "address"
        },
        {
          "indexed": true,
          "internalType": "address",
          "name": "newOwner",
          "type": "address"
        }
      ],
      "name": "OwnershipTransferred",
      "type": "event"
    },
    {
      "anonymous": false,
      "inputs": [
        {
          "indexed": true,
          "internalType": "address",
          "name": "subscriber",
          "type": "address"
        },
        {
          "indexed": true,
          "internalType": "uint64",
          "name": "serviceId",
          "type": "uint64"
        },
        {
          "indexed": false,
          "internalType": "uint128",
          "name": "amount",
          "type": "uint128"
        }
      ],
      "name": "PaymentExecuted",
      "type": "event"
    },
    {
      "anonymous": false,
      "inputs": [
        {
          "indexed": true,
          "internalType": "bytes32",
          "name": "role",
          "type": "bytes32"
        },
        {
          "indexed": true,
          "internalType": "bytes32",
          "name": "previousAdminRole",
          "type": "bytes32"
        },
        {
          "indexed": true,
          "internalType": "bytes32",
          "name": "newAdminRole",
          "type": "bytes32"
        }
      ],
      "name": "RoleAdminChanged",
      "type": "event"
    },
    {
      "anonymous": false,
      "inputs": [
        {
          "indexed": true,
          "internalType": "bytes32",
          "name": "role",
          "type": "bytes32"
        },
        {
          "indexed": true,
          "internalType": "address",
          "name": "account",
          "type": "address"
        },
        {
          "indexed": true,
          "internalType": "address",
          "name": "sender",
          "type": "address"
        }
      ],
      "name": "RoleGranted",
      "type": "event"
    },
    {
      "anonymous": false,
      "inputs": [
        {
          "indexed": true,
          "internalType": "bytes32",
          "name": "role",
          "type": "bytes32"
        },
        {
          "indexed": true,
          "internalType": "address",
          "name": "account",
          "type": "address"
        },
        {
          "indexed": true,
          "internalType": "address",
          "name": "sender",
          "type": "address"
        }
      ],
      "name": "RoleRevoked",
      "type": "event"
    },
    {
      "anonymous": false,
      "inputs": [
        {
          "indexed": true,
          "internalType": "uint64",
          "name": "serviceId",
          "type": "uint64"
        },
        {
          "indexed": true,
          "internalType": "address",
          "name": "provider",
          "type": "address"
        },
        {
          "indexed": false,
          "internalType": "uint128",
          "name": "price",
          "type": "uint128"
        }
      ],
      "name": "ServiceCreated",
      "type": "event"
    },
    {
      "anonymous": false,
      "inputs": [
        {
          "indexed": true,
          "internalType": "address",
          "name": "subscriber",
          "type": "address"
        },
        {
          "indexed": true,
          "internalType": "uint64",
          "name": "serviceId",
          "type": "uint64"
        }
      ],
      "name": "SubscriptionCancelled",
      "type": "event"
    },
    {
      "anonymous": false,
      "inputs": [
        {
          "indexed": true,
          "internalType": "address",
          "name": "subscriber",
          "type": "address"
        },
        {
          "indexed": true,
          "internalType": "uint64",
          "name": "serviceId",
          "type": "uint64"
        },
        {
          "indexed": false,
          "internalType": "uint128",
          "name": "amount",
          "type": "uint128"
        }
      ],
      "name": "SubscriptionCreated",
      "type": "event"
    },
    {
      "anonymous": false,
      "inputs": [
        {
          "indexed": true,
          "internalType": "address",
          "name": "subscriber",
          "type": "address"
        },
        {
          "indexed": true,
          "internalType": "uint64",
          "name": "serviceId",
          "type": "uint64"
        },
        {
          "indexed": false,
          "internalType": "uint128",
          "name": "amount",
          "type": "uint128"
        }
      ],
      "name": "SubscriptionUpdated",
      "type": "event"
    },
    {
      "inputs": [],
      "name": "DEFAULT_ADMIN_ROLE",
      "outputs": [
        {
          "internalType": "bytes32",
          "name": "",
          "type": "bytes32"
        }
      ],
      "stateMutability": "view",
      "type": "function"
    },
    {
      "inputs": [],
      "name": "SERVICE_PROVIDER",
      "outputs": [
        {
          "internalType": "bytes32",
          "name": "",
          "type": "bytes32"
        }
      ],
      "stateMutability": "view",
      "type": "function"
    },
    {
      "inputs": [
        {
          "internalType": "address",
          "name": "user",
          "type": "address"
        }
      ],
      "name": "addServiceProvider",
      "outputs": [],
      "stateMutability": "nonpayable",
      "type": "function"
    },
    {
      "inputs": [
        {
          "internalType": "uint8",
          "name": "_serviceId",
          "type": "uint8"
        },
        {
          "internalType": "enum SubscriptionManager.Duration",
          "name": "duration",
          "type": "uint8"
        }
      ],
      "name": "calculateSubscriptionAmount",
      "outputs": [
        {
          "internalType": "uint128",
          "name": "",
          "type": "uint128"
        }
      ],
      "stateMutability": "view",
      "type": "function"
    },
    {
      "inputs": [
        {
          "internalType": "uint8",
          "name": "_serviceId",
          "type": "uint8"
        }
      ],
      "name": "cancelSubscription",
      "outputs": [],
      "stateMutability": "nonpayable",
      "type": "function"
    },
    {
      "inputs": [
        {
          "internalType": "uint128",
          "name": "price",
          "type": "uint128"
        }
      ],
      "name": "createService",
      "outputs": [],
      "stateMutability": "nonpayable",
      "type": "function"
    },
    {
      "inputs": [
        {
          "internalType": "uint8",
          "name": "_serviceId",
          "type": "uint8"
        },
        {
          "internalType": "enum SubscriptionManager.Duration",
          "name": "duration",
          "type": "uint8"
        }
      ],
      "name": "createSubscription",
      "outputs": [],
      "stateMutability": "nonpayable",
      "type": "function"
    },
    {
      "inputs": [
        {
          "internalType": "uint8",
          "name": "_serviceId",
          "type": "uint8"
        }
      ],
      "name": "executePayment",
      "outputs": [],
      "stateMutability": "nonpayable",
      "type": "function"
    },
    {
      "inputs": [
        {
          "internalType": "bytes32",
          "name": "role",
          "type": "bytes32"
        }
      ],
      "name": "getRoleAdmin",
      "outputs": [
        {
          "internalType": "bytes32",
          "name": "",
          "type": "bytes32"
        }
      ],
      "stateMutability": "view",
      "type": "function"
    },
    {
      "inputs": [
        {
          "internalType": "bytes32",
          "name": "role",
          "type": "bytes32"
        },
        {
          "internalType": "address",
          "name": "account",
          "type": "address"
        }
      ],
      "name": "grantRole",
      "outputs": [],
      "stateMutability": "nonpayable",
      "type": "function"
    },
    {
      "inputs": [
        {
          "internalType": "bytes32",
          "name": "role",
          "type": "bytes32"
        },
        {
          "internalType": "address",
          "name": "account",
          "type": "address"
        }
      ],
      "name": "hasRole",
      "outputs": [
        {
          "internalType": "bool",
          "name": "",
          "type": "bool"
        }
      ],
      "stateMutability": "view",
      "type": "function"
    },
    {
      "inputs": [],
      "name": "owner",
      "outputs": [
        {
          "internalType": "address",
          "name": "",
          "type": "address"
        }
      ],
      "stateMutability": "view",
      "type": "function"
    },
    {
      "inputs": [],
      "name": "renounceOwnership",
      "outputs": [],
      "stateMutability": "nonpayable",
      "type": "function"
    },
    {
      "inputs": [
        {
          "internalType": "bytes32",
          "name": "role",
          "type": "bytes32"
        },
        {
          "internalType": "address",
          "name": "callerConfirmation",
          "type": "address"
        }
      ],
      "name": "renounceRole",
      "outputs": [],
      "stateMutability": "nonpayable",
      "type": "function"
    },
    {
      "inputs": [
        {
          "internalType": "bytes32",
          "name": "role",
          "type": "bytes32"
        },
        {
          "internalType": "address",
          "name": "account",
          "type": "address"
        }
      ],
      "name": "revokeRole",
      "outputs": [],
      "stateMutability": "nonpayable",
      "type": "function"
    },
    {
      "inputs": [],
      "name": "serviceId",
      "outputs": [
        {
          "internalType": "uint8",
          "name": "",
          "type": "uint8"
        }
      ],
      "stateMutability": "view",
      "type": "function"
    },
    {
      "inputs": [
        {
          "internalType": "uint8",
          "name": "",
          "type": "uint8"
        }
      ],
      "name": "services",
      "outputs": [
        {
          "internalType": "address",
          "name": "serviceProvider",
          "type": "address"
        },
        {
          "internalType": "uint128",
          "name": "price",
          "type": "uint128"
        },
        {
          "internalType": "bool",
          "name": "active",
          "type": "bool"
        }
      ],
      "stateMutability": "view",
      "type": "function"
    },
    {
      "inputs": [
        {
          "internalType": "address",
          "name": "",
          "type": "address"
        },
        {
          "internalType": "uint8",
          "name": "",
          "type": "uint8"
        }
      ],
      "name": "subscriptions",
      "outputs": [
        {
          "internalType": "address",
          "name": "subscriber",
          "type": "address"
        },
        {
          "internalType": "uint128",
          "name": "price",
          "type": "uint128"
        },
        {
          "internalType": "uint256",
          "name": "nextPaymentDate",
          "type": "uint256"
        },
        {
          "internalType": "bool",
          "name": "active",
          "type": "bool"
        },
        {
          "internalType": "enum SubscriptionManager.Duration",
          "name": "duration",
          "type": "uint8"
        }
      ],
      "stateMutability": "view",
      "type": "function"
    },
    {
      "inputs": [
        {
          "internalType": "bytes4",
          "name": "interfaceId",
          "type": "bytes4"
        }
      ],
      "name": "supportsInterface",
      "outputs": [
        {
          "internalType": "bool",
          "name": "",
          "type": "bool"
        }
      ],
      "stateMutability": "view",
      "type": "function"
    },
    {
      "inputs": [
        {
          "internalType": "address",
          "name": "newOwner",
          "type": "address"
        }
      ],
      "name": "transferOwnership",
      "outputs": [],
      "stateMutability": "nonpayable",
      "type": "function"
    },
    {
      "inputs": [],
      "name": "usdeToken",
      "outputs": [
        {
          "internalType": "contract IERC20",
          "name": "",
          "type": "address"
        }
      ],
      "stateMutability": "view",
      "type": "function"
    }
  ],
  "bytecode": "0x60806040523480156200001157600080fd5b50604051620028ec380380620028ec8339818101604052810190620000379190620003d5565b33600073ffffffffffffffffffffffffffffffffffffffff168173ffffffffffffffffffffffffffffffffffffffff1603620000ad5760006040517f1e4fbdf7000000000000000000000000000000000000000000000000000000008152600401620000a4919062000418565b60405180910390fd5b620000be816200011d60201b60201c565b50620000d46000801b33620001e160201b60201c565b5080600260006101000a81548173ffffffffffffffffffffffffffffffffffffffff021916908373ffffffffffffffffffffffffffffffffffffffff1602179055505062000435565b60008060009054906101000a900473ffffffffffffffffffffffffffffffffffffffff169050816000806101000a81548173ffffffffffffffffffffffffffffffffffffffff021916908373ffffffffffffffffffffffffffffffffffffffff1602179055508173ffffffffffffffffffffffffffffffffffffffff168173ffffffffffffffffffffffffffffffffffffffff167f8be0079c531659141344cd1fd0a4f28419497f9722a3daafe3b4186f6b6457e060405160405180910390a35050565b6000620001f58383620002e460201b60201c565b620002d957600180600085815260200190815260200160002060000160008473ffffffffffffffffffffffffffffffffffffffff1673ffffffffffffffffffffffffffffffffffffffff16815260200190815260200160002060006101000a81548160ff021916908315150217905550620002756200034f60201b60201c565b73ffffffffffffffffffffffffffffffffffffffff168273ffffffffffffffffffffffffffffffffffffffff16847f2f8788117e7eff1d82e926ec794901d17c78024a50270940304540a733656f0d60405160405180910390a460019050620002de565b600090505b92915050565b60006001600084815260200190815260200160002060000160008373ffffffffffffffffffffffffffffffffffffffff1673ffffffffffffffffffffffffffffffffffffffff16815260200190815260200160002060009054906101000a900460ff16905092915050565b600033905090565b600080fd5b600073ffffffffffffffffffffffffffffffffffffffff82169050919050565b600062000389826200035c565b9050919050565b60006200039d826200037c565b9050919050565b620003af8162000390565b8114620003bb57600080fd5b50565b600081519050620003cf81620003a4565b92915050565b600060208284031215620003ee57620003ed62000357565b5b6000620003fe84828501620003be565b91505092915050565b62000412816200037c565b82525050565b60006020820190506200042f600083018462000407565b92915050565b6124a780620004456000396000f3fe608060405234801561001057600080fd5b50600436106101375760003560e01c80638da5cb5b116100b8578063c508d8bf1161007c578063c508d8bf14610326578063d547741f14610342578063da20ec6a1461035e578063e7a911441461037c578063f2fde38b146103b0578063fa05419a146103cc57610137565b80638da5cb5b146102805780638f7fce2b1461029e57806391d14854146102ba578063a217fddf146102ea578063bc14ebe71461030857610137565b80632b02650e116100ff5780632b02650e146102065780632f2ff15d1461022257806336568abe1461023e57806340b260b91461025a578063715018a61461027657610137565b806301ffc9a71461013c578063075d7a6f1461016c578063248a9ca3146101885780632625832c146101b85780632a26c58b146101d6575b600080fd5b61015660048036038101906101519190611934565b6103fe565b604051610163919061197c565b60405180910390f35b610186600480360381019061018191906119f5565b610478565b005b6101a2600480360381019061019d9190611a58565b6104ae565b6040516101af9190611a94565b60405180910390f35b6101c06104ce565b6040516101cd9190611a94565b60405180910390f35b6101f060048036038101906101eb9190611b0d565b6104f2565b6040516101fd9190611b78565b60405180910390f35b610220600480360381019061021b9190611b93565b6106f0565b005b61023c60048036038101906102379190611bc0565b610a00565b005b61025860048036038101906102539190611bc0565b610a22565b005b610274600480360381019061026f9190611b0d565b610a9d565b005b61027e610e76565b005b610288610e8a565b6040516102959190611c0f565b60405180910390f35b6102b860048036038101906102b39190611b93565b610eb3565b005b6102d460048036038101906102cf9190611bc0565b610fc6565b6040516102e1919061197c565b60405180910390f35b6102f2611031565b6040516102ff9190611a94565b60405180910390f35b610310611038565b60405161031d9190611c89565b60405180910390f35b610340600480360381019061033b9190611cd0565b61105e565b005b61035c60048036038101906103579190611bc0565b61130a565b005b61036661132c565b6040516103739190611d0c565b60405180910390f35b61039660048036038101906103919190611d27565b61133f565b6040516103a7959493929190611df7565b60405180910390f35b6103ca60048036038101906103c591906119f5565b6113d8565b005b6103e660048036038101906103e19190611b93565b61145e565b6040516103f593929190611e4a565b60405180910390f35b60007f7965db0b000000000000000000000000000000000000000000000000000000007bffffffffffffffffffffffffffffffffffffffffffffffffffffffff1916827bffffffffffffffffffffffffffffffffffffffffffffffffffffffff191614806104715750610470826114d1565b5b9050919050565b61048061153b565b6104aa7fb1295e226936bc270b4829acc516f69e4a4f6a5589c7ea15c4ab1eeff4153cc9826115c2565b5050565b600060016000838152602001908152602001600020600101549050919050565b7fb1295e226936bc270b4829acc516f69e4a4f6a5589c7ea15c4ab1eeff4153cc981565b600080600360008560ff1660ff1681526020019081526020016000206040518060600160405290816000820160009054906101000a900473ffffffffffffffffffffffffffffffffffffffff1673ffffffffffffffffffffffffffffffffffffffff1673ffffffffffffffffffffffffffffffffffffffff1681526020016001820160009054906101000a90046fffffffffffffffffffffffffffffffff166fffffffffffffffffffffffffffffffff166fffffffffffffffffffffffffffffffff1681526020016001820160109054906101000a900460ff1615151515815250509050806040015161061a576040517f08c379a000000000000000000000000000000000000000000000000000000000815260040161061190611ede565b60405180910390fd5b6000600181111561062e5761062d611d80565b5b83600181111561064157610640611d80565b5b036106535780602001519150506106ea565b60018081111561066657610665611d80565b5b83600181111561067957610678611d80565b5b036106af5760646046600c83602001516106939190611f2d565b61069d9190611f2d565b6106a79190611f99565b9150506106ea565b6040517f08c379a00000000000000000000000000000000000000000000000000000000081526004016106e190612016565b60405180910390fd5b92915050565b6000600460003373ffffffffffffffffffffffffffffffffffffffff1673ffffffffffffffffffffffffffffffffffffffff16815260200190815260200160002060008360ff1660ff16815260200190815260200160002090508060030160009054906101000a900460ff1661079b576040517f08c379a000000000000000000000000000000000000000000000000000000000815260040161079290612082565b60405180910390fd5b80600201544210156107e2576040517f08c379a00000000000000000000000000000000000000000000000000000000081526004016107d9906120ee565b60405180910390fd5b6000600360008460ff1660ff1681526020019081526020016000209050600260009054906101000a900473ffffffffffffffffffffffffffffffffffffffff1673ffffffffffffffffffffffffffffffffffffffff166323b872dd338360000160009054906101000a900473ffffffffffffffffffffffffffffffffffffffff168560010160009054906101000a90046fffffffffffffffffffffffffffffffff166040518463ffffffff1660e01b81526004016108a29392919061213f565b6020604051808303816000875af11580156108c1573d6000803e3d6000fd5b505050506040513d601f19601f820116820180604052508101906108e591906121a2565b610924576040517f08c379a000000000000000000000000000000000000000000000000000000000815260040161091b9061221b565b60405180910390fd5b6000600181111561093857610937611d80565b5b8260030160019054906101000a900460ff16600181111561095c5761095b611d80565b5b1461096b576301e13380610970565b62278d005b63ffffffff1642610981919061223b565b82600201819055508260ff163373ffffffffffffffffffffffffffffffffffffffff167f6ba6e115f7af076eb59b0a0858429347a881fe022f1159923aed79ffa1d696918460010160009054906101000a90046fffffffffffffffffffffffffffffffff166040516109f39190611b78565b60405180910390a3505050565b610a09826104ae565b610a12816116b3565b610a1c83836115c2565b50505050565b610a2a6116c7565b73ffffffffffffffffffffffffffffffffffffffff168173ffffffffffffffffffffffffffffffffffffffff1614610a8e576040517f6697b23200000000000000000000000000000000000000000000000000000000815260040160405180910390fd5b610a9882826116cf565b505050565b600360008360ff1660ff16815260200190815260200160002060010160109054906101000a900460ff16610b06576040517f08c379a0000000000000000000000000000000000000000000000000000000008152600401610afd906122bb565b60405180910390fd5b6000600360008460ff1660ff16815260200190815260200160002090506000600460003373ffffffffffffffffffffffffffffffffffffffff1673ffffffffffffffffffffffffffffffffffffffff16815260200190815260200160002060008560ff1660ff16815260200190815260200160002090508060030160009054906101000a900460ff1615610bcf576040517f08c379a0000000000000000000000000000000000000000000000000000000008152600401610bc690612327565b60405180910390fd5b6000610bdb85856104f2565b9050600260009054906101000a900473ffffffffffffffffffffffffffffffffffffffff1673ffffffffffffffffffffffffffffffffffffffff166323b872dd338560000160009054906101000a900473ffffffffffffffffffffffffffffffffffffffff16846040518463ffffffff1660e01b8152600401610c609392919061213f565b6020604051808303816000875af1158015610c7f573d6000803e3d6000fd5b505050506040513d601f19601f82011682018060405250810190610ca391906121a2565b610ce2576040517f08c379a0000000000000000000000000000000000000000000000000000000008152600401610cd99061221b565b60405180910390fd5b338260000160006101000a81548173ffffffffffffffffffffffffffffffffffffffff021916908373ffffffffffffffffffffffffffffffffffffffff160217905550808260010160006101000a8154816fffffffffffffffffffffffffffffffff02191690836fffffffffffffffffffffffffffffffff16021790555060006001811115610d7457610d73611d80565b5b846001811115610d8757610d86611d80565b5b14610d96576301e13380610d9b565b62278d005b63ffffffff1642610dac919061223b565b826002018190555060018260030160006101000a81548160ff021916908315150217905550838260030160016101000a81548160ff02191690836001811115610df857610df7611d80565b5b02179055508460ff163373ffffffffffffffffffffffffffffffffffffffff167fcb4f9383a92ae67e9695c8df9ebbe4c38887ce0cba85dd3eb36eee5b990630578560010160009054906101000a90046fffffffffffffffffffffffffffffffff16604051610e679190611b78565b60405180910390a35050505050565b610e7e61153b565b610e8860006117c2565b565b60008060009054906101000a900473ffffffffffffffffffffffffffffffffffffffff16905090565b6000600460003373ffffffffffffffffffffffffffffffffffffffff1673ffffffffffffffffffffffffffffffffffffffff16815260200190815260200160002060008360ff1660ff16815260200190815260200160002090508060030160009054906101000a900460ff16610f5e576040517f08c379a0000000000000000000000000000000000000000000000000000000008152600401610f5590612082565b60405180910390fd5b60008160030160006101000a81548160ff0219169083151502179055508160ff163373ffffffffffffffffffffffffffffffffffffffff167f31043f73ad232c0e1e1b6390d8a41d5fbf316b30e781c7dc76895ef519c2f58360405160405180910390a35050565b60006001600084815260200190815260200160002060000160008373ffffffffffffffffffffffffffffffffffffffff1673ffffffffffffffffffffffffffffffffffffffff16815260200190815260200160002060009054906101000a900460ff16905092915050565b6000801b81565b600260009054906101000a900473ffffffffffffffffffffffffffffffffffffffff1681565b7fb1295e226936bc270b4829acc516f69e4a4f6a5589c7ea15c4ab1eeff4153cc9611088816116b3565b6000826fffffffffffffffffffffffffffffffff16116110dd576040517f08c379a00000000000000000000000000000000000000000000000000000000081526004016110d490612393565b60405180910390fd5b60036000600260149054906101000a900460ff1660ff1660ff16815260200190815260200160002060010160109054906101000a900460ff1615611156576040517f08c379a000000000000000000000000000000000000000000000000000000000815260040161114d906123ff565b60405180910390fd5b6002601481819054906101000a900460ff16809291906111759061241f565b91906101000a81548160ff021916908360ff1602179055505060405180606001604052803373ffffffffffffffffffffffffffffffffffffffff168152602001836fffffffffffffffffffffffffffffffff1681526020016001151581525060036000600260149054906101000a900460ff1660ff1660ff16815260200190815260200160002060008201518160000160006101000a81548173ffffffffffffffffffffffffffffffffffffffff021916908373ffffffffffffffffffffffffffffffffffffffff16021790555060208201518160010160006101000a8154816fffffffffffffffffffffffffffffffff02191690836fffffffffffffffffffffffffffffffff16021790555060408201518160010160106101000a81548160ff0219169083151502179055509050503373ffffffffffffffffffffffffffffffffffffffff16600260149054906101000a900460ff1660ff167ffb7358d60261e341d2ee51d1053e664aa13ea03ca39b0c948e3ed88c4905912c846040516112fe9190611b78565b60405180910390a35050565b611313826104ae565b61131c816116b3565b61132683836116cf565b50505050565b600260149054906101000a900460ff1681565b6004602052816000526040600020602052806000526040600020600091509150508060000160009054906101000a900473ffffffffffffffffffffffffffffffffffffffff16908060010160009054906101000a90046fffffffffffffffffffffffffffffffff16908060020154908060030160009054906101000a900460ff16908060030160019054906101000a900460ff16905085565b6113e061153b565b600073ffffffffffffffffffffffffffffffffffffffff168173ffffffffffffffffffffffffffffffffffffffff16036114525760006040517f1e4fbdf70000000000000000000000000000000000000000000000000000000081526004016114499190611c0f565b60405180910390fd5b61145b816117c2565b50565b60036020528060005260406000206000915090508060000160009054906101000a900473ffffffffffffffffffffffffffffffffffffffff16908060010160009054906101000a90046fffffffffffffffffffffffffffffffff16908060010160109054906101000a900460ff16905083565b60007f01ffc9a7000000000000000000000000000000000000000000000000000000007bffffffffffffffffffffffffffffffffffffffffffffffffffffffff1916827bffffffffffffffffffffffffffffffffffffffffffffffffffffffff1916149050919050565b6115436116c7565b73ffffffffffffffffffffffffffffffffffffffff16611561610e8a565b73ffffffffffffffffffffffffffffffffffffffff16146115c0576115846116c7565b6040517f118cdaa70000000000000000000000000000000000000000000000000000000081526004016115b79190611c0f565b60405180910390fd5b565b60006115ce8383610fc6565b6116a857600180600085815260200190815260200160002060000160008473ffffffffffffffffffffffffffffffffffffffff1673ffffffffffffffffffffffffffffffffffffffff16815260200190815260200160002060006101000a81548160ff0219169083151502179055506116456116c7565b73ffffffffffffffffffffffffffffffffffffffff168273ffffffffffffffffffffffffffffffffffffffff16847f2f8788117e7eff1d82e926ec794901d17c78024a50270940304540a733656f0d60405160405180910390a4600190506116ad565b600090505b92915050565b6116c4816116bf6116c7565b611886565b50565b600033905090565b60006116db8383610fc6565b156117b75760006001600085815260200190815260200160002060000160008473ffffffffffffffffffffffffffffffffffffffff1673ffffffffffffffffffffffffffffffffffffffff16815260200190815260200160002060006101000a81548160ff0219169083151502179055506117546116c7565b73ffffffffffffffffffffffffffffffffffffffff168273ffffffffffffffffffffffffffffffffffffffff16847ff6391f5c32d9c69d2a47ea670b442974b53935d1edc7fd64eb21e047a839171b60405160405180910390a4600190506117bc565b600090505b92915050565b60008060009054906101000a900473ffffffffffffffffffffffffffffffffffffffff169050816000806101000a81548173ffffffffffffffffffffffffffffffffffffffff021916908373ffffffffffffffffffffffffffffffffffffffff1602179055508173ffffffffffffffffffffffffffffffffffffffff168173ffffffffffffffffffffffffffffffffffffffff167f8be0079c531659141344cd1fd0a4f28419497f9722a3daafe3b4186f6b6457e060405160405180910390a35050565b6118908282610fc6565b6118d35780826040517fe2517d3f0000000000000000000000000000000000000000000000000000000081526004016118ca929190612448565b60405180910390fd5b5050565b600080fd5b60007fffffffff0000000000000000000000000000000000000000000000000000000082169050919050565b611911816118dc565b811461191c57600080fd5b50565b60008135905061192e81611908565b92915050565b60006020828403121561194a576119496118d7565b5b60006119588482850161191f565b91505092915050565b60008115159050919050565b61197681611961565b82525050565b6000602082019050611991600083018461196d565b92915050565b600073ffffffffffffffffffffffffffffffffffffffff82169050919050565b60006119c282611997565b9050919050565b6119d2816119b7565b81146119dd57600080fd5b50565b6000813590506119ef816119c9565b92915050565b600060208284031215611a0b57611a0a6118d7565b5b6000611a19848285016119e0565b91505092915050565b6000819050919050565b611a3581611a22565b8114611a4057600080fd5b50565b600081359050611a5281611a2c565b92915050565b600060208284031215611a6e57611a6d6118d7565b5b6000611a7c84828501611a43565b91505092915050565b611a8e81611a22565b82525050565b6000602082019050611aa96000830184611a85565b92915050565b600060ff82169050919050565b611ac581611aaf565b8114611ad057600080fd5b50565b600081359050611ae281611abc565b92915050565b60028110611af557600080fd5b50565b600081359050611b0781611ae8565b92915050565b60008060408385031215611b2457611b236118d7565b5b6000611b3285828601611ad3565b9250506020611b4385828601611af8565b9150509250929050565b60006fffffffffffffffffffffffffffffffff82169050919050565b611b7281611b4d565b82525050565b6000602082019050611b8d6000830184611b69565b92915050565b600060208284031215611ba957611ba86118d7565b5b6000611bb784828501611ad3565b91505092915050565b60008060408385031215611bd757611bd66118d7565b5b6000611be585828601611a43565b9250506020611bf6858286016119e0565b9150509250929050565b611c09816119b7565b82525050565b6000602082019050611c246000830184611c00565b92915050565b6000819050919050565b6000611c4f611c4a611c4584611997565b611c2a565b611997565b9050919050565b6000611c6182611c34565b9050919050565b6000611c7382611c56565b9050919050565b611c8381611c68565b82525050565b6000602082019050611c9e6000830184611c7a565b92915050565b611cad81611b4d565b8114611cb857600080fd5b50565b600081359050611cca81611ca4565b92915050565b600060208284031215611ce657611ce56118d7565b5b6000611cf484828501611cbb565b91505092915050565b611d0681611aaf565b82525050565b6000602082019050611d216000830184611cfd565b92915050565b60008060408385031215611d3e57611d3d6118d7565b5b6000611d4c858286016119e0565b9250506020611d5d85828601611ad3565b9150509250929050565b6000819050919050565b611d7a81611d67565b82525050565b7f4e487b7100000000000000000000000000000000000000000000000000000000600052602160045260246000fd5b60028110611dc057611dbf611d80565b5b50565b6000819050611dd182611daf565b919050565b6000611de182611dc3565b9050919050565b611df181611dd6565b82525050565b600060a082019050611e0c6000830188611c00565b611e196020830187611b69565b611e266040830186611d71565b611e33606083018561196d565b611e406080830184611de8565b9695505050505050565b6000606082019050611e5f6000830186611c00565b611e6c6020830185611b69565b611e79604083018461196d565b949350505050565b600082825260208201905092915050565b7f53657276696365206973206e6f74206163746976650000000000000000000000600082015250565b6000611ec8601583611e81565b9150611ed382611e92565b602082019050919050565b60006020820190508181036000830152611ef781611ebb565b9050919050565b7f4e487b7100000000000000000000000000000000000000000000000000000000600052601160045260246000fd5b6000611f3882611b4d565b9150611f4383611b4d565b9250828202611f5181611b4d565b9150808214611f6357611f62611efe565b5b5092915050565b7f4e487b7100000000000000000000000000000000000000000000000000000000600052601260045260246000fd5b6000611fa482611b4d565b9150611faf83611b4d565b925082611fbf57611fbe611f6a565b5b828204905092915050565b7f496e76616c6964206475726174696f6e20747970650000000000000000000000600082015250565b6000612000601583611e81565b915061200b82611fca565b602082019050919050565b6000602082019050818103600083015261202f81611ff3565b9050919050565b7f537562736372697074696f6e20697320696e6163746976650000000000000000600082015250565b600061206c601883611e81565b915061207782612036565b602082019050919050565b6000602082019050818103600083015261209b8161205f565b9050919050565b7f5061796d656e74206e6f74206475652079657400000000000000000000000000600082015250565b60006120d8601383611e81565b91506120e3826120a2565b602082019050919050565b60006020820190508181036000830152612107816120cb565b9050919050565b600061212961212461211f84611b4d565b611c2a565b611d67565b9050919050565b6121398161210e565b82525050565b60006060820190506121546000830186611c00565b6121616020830185611c00565b61216e6040830184612130565b949350505050565b61217f81611961565b811461218a57600080fd5b50565b60008151905061219c81612176565b92915050565b6000602082840312156121b8576121b76118d7565b5b60006121c68482850161218d565b91505092915050565b7f5061796d656e74206661696c6564000000000000000000000000000000000000600082015250565b6000612205600e83611e81565b9150612210826121cf565b602082019050919050565b60006020820190508181036000830152612234816121f8565b9050919050565b600061224682611d67565b915061225183611d67565b925082820190508082111561226957612268611efe565b5b92915050565b7f5365727669636520697320696e61637469766500000000000000000000000000600082015250565b60006122a5601383611e81565b91506122b08261226f565b602082019050919050565b600060208201905081810360008301526122d481612298565b9050919050565b7f537562736372697074696f6e20616c7265616479206578697374730000000000600082015250565b6000612311601b83611e81565b915061231c826122db565b602082019050919050565b6000602082019050818103600083015261234081612304565b9050919050565b7f5072696365206d7573742062652067726561746572207468616e203000000000600082015250565b600061237d601c83611e81565b915061238882612347565b602082019050919050565b600060208201905081810360008301526123ac81612370565b9050919050565b7f5365727669636520616c72656164792065786973747300000000000000000000600082015250565b60006123e9601683611e81565b91506123f4826123b3565b602082019050919050565b60006020820190508181036000830152612418816123dc565b9050919050565b600061242a82611aaf565b915060ff820361243d5761243c611efe565b5b600182019050919050565b600060408201905061245d6000830185611c00565b61246a6020830184611a85565b939250505056fea2646970667358221220d6df35c85a57455ad8977a075d89bc4e0b9d1ce1af6d38e64b82f0be32d6faef64736f6c63430008180033",
  "linkReferences": {},
  "deployedLinkReferences": {}
}